AAA000000001TYPE      FORMULA        0QA  10____________________1234567890    
AAA000000002TYPE      FORMULA        1QA  10____________________1234567890    
AAA000000003TYPE      FORMULA        3QA  10____________________1234567890    
AAA000000004TYPE      FORMULA        5QA  10____________________1234567890    
AAA000000005TYPE      FORMULA        3QA  10____________________1234567890    